:020000040000FA
:1000000000000228C230FE000330FF0080300000F4
:1000100000000B230000000083160000B5007F08DD
:10002000B400C430B6000330B700831600003408B3
:10003000B8003508B900FF30B407031CB503390810
:10004000380403199A2804303607B800B901B90DED
:100050003708B9073808FE003908FF008030000073
:1000600000000B230000000083160000BB007F0887
:10007000BA003608FE003708FF008030000000009C
:100080000B230000000083160000BD00B9007F08AC
:10009000B800BC0002303607B800B901B90D370806
:1000A000B9073808FE003908FF0080300000000062
:1000B0000B230000000083160000B900BF007F087A
:1000C000BE00B800831600003A08BE003B08BF001F
:1000D000FF30BA07031CBB033F083E0403199328F3
:1000E0003C08FE003D08FF008030000000002C238B
:1000F0000000000083160000BE00380883120313BE
:100100008400831383160000391883173E08831276
:100110000313800083160000BC0A0319BD0AB80A45
:100120000319B90A6228063083160000B6070318BF
:10013000B70A152800000000E92908008312000012
:10014000A1007F0883120000A40083120000A00019
:100150007E08A3007D0883120000A6008312000021
:10016000A200210883120000A500831200002308CA
:1001700083120000A70083120000240883120000ED
:10018000A00083120000260883120000A100FF00D7
:100190002008000000006A23000000008312000015
:1001A000A1007F08A00083120000A80083120000B5
:1001B000210883120000A90083120000A00083120E
:1001C0000000240883120000A10083120000270809
:1001D00083120000A200FF002108000000006A2333
:1001E000000000007F0883120000A10083120000BD
:1001F000250883120000A200831200002608831243
:100200000000A300FF002208000000006A23000095
:1002100000007F0883120000A200A1072108A007A8
:10022000200883120000A900280883120000A00003
:1002300083120000290883120000A1002008FF009B
:100240002108080083120000AB007F08AA007E0886
:10025000AD007D08AC000314AB1F0310AE01AE0D62
:100260002E0803193B292A09AF002B09B000AF0A59
:100270000319B00A4129831200002A08AF002B0895
:10028000B000831200002F08AA003008AB0003144E
:10029000AD1F0310AF01AF0D2F08031957292C090B
:1002A000B0002D09B100B00A0319B10A5D2983120B
:1002B00000002C08B0002D08B100831200003008A7
:1002C000AC00FD003108AD00FE002A08FF002B083D
:1002D00000000000D1220000000083120000AB00EB
:1002E0007F08AA002F08AE062E08031982292A09C2
:1002F000AE002B09AC00AE0A0319AC0A2E08FF00B1
:100300002C088729831200002A08FF002B08080008
:1003100083120000BB007F08BA007E08BD007D0884
:10032000BC000314BB1F0310BE01BE0D3E08031921
:10033000A1293A09BF003B09C000BF0A0319C00A3E
:10034000A729831200003A08BF003B08C0008312AF
:1003500000003F08BA004008BB000314BD1F031093
:10036000031CBA293C09BF003D09C000BF0A03199C
:10037000C00AC029831200003C08BF003D08C0002D
:10038000831200003F08BC00FD004008BD00FE00D5
:100390003A08FF003B080000000041220000000076
:1003A00083120000BB007F08BA003E080319E3294E
:1003B0003A09BE003B09BC00BE0A0319BC0A3E084C
:1003C000FF003C08E829831200003A08FF003B08C0
:1003D000080008308316850002308316A600A701A6
:1003E000A801A90183162908803E803E031DFA2931
:1003F000103028020318402A83162608FD0027081B
:10040000FE002608FF0027089E208316AB007F0809
:10041000AA00F330FD000030FE002A08FF002B0880
:1004200088218316A7007F08A6006430FD000030F5
:10043000FE002608FF00270888218312D0007F08CD
:10044000CF005008803E803E031D282A64304F02B2
:1004500003183B2A831285192F2A95232A2A8316EB
:10046000AA018312851D362A8316AA0A83162A0832
:10047000013A03192F2A8316A80A0319A90AF22997
:10048000080083120000C2007F08C1007E08C4007B
:100490007D08C300C501C6018312000044088039ED
:1004A000031D0130C7004708031D6D2A0310C30D4B
:1004B000C40D44084202031D5F2A43084102031889
:1004C000672A031083120000C40CC30C6D2A831228
:1004D0000000C60A4608C5004C2A831200004408E2
:1004E0004202031D752A43084102031C7F2A83121E
:1004F00000004308C1024408031C440FC202031059
:1005000083120000C40CC30C4508C600C50346088E
:10051000031D6D2A4108FF00420808000A30FD0053
:100520000030FE0083124F08FF005008222183167E
:10053000A1007F08A0000A30FD000030FE008312F9
:100540004F08FF00500888218316A3007F08A200EF
:10055000B83EA20023080318230F033EA30022087D
:10056000FE002308FF0080302C2383128500013019
:10057000FF0000303F2383162008AE3EA000210874
:100580000318210F033EA1002008FE002108FF00F0
:1005900080302C23831285000130FF0000303F2380
:1005A000080083120000B3007F08B2007E08B50087
:1005B0007D08B400B601B7011030B8008312000006
:1005C00033088039031D0130B9000310B20DB30D9B
:1005D0000310B60DB70D3908031D36143508370260
:1005E000031DF42A34083602031CFF2A831200007C
:1005F0003408B6023508031C350FB70232148312D3
:1006000000003803B900B8003908031DDE2A32089B
:10061000FF0033080800003A0319132B803A03192E
:100620001D2BFF0100347E08840083137F1883177D
:100630000008FF00840A00080800000000003A23B8
:10064000FD00FE0FFF03FF0A000000003A23FC003C
:100650007D08FF007C080800003A0319332B803A1C
:1006600003193A2B00347E08840083137F18831704
:10067000000808007F088A007E08820008008316B0
:10068000AD007F08AC00AE01AF0183162D082F022C
:10069000031D4C2B2C082E020318692BE8308316FF
:1006A000B0000330B100FF3083163007B200FF30D6
:1006B000B30031080318310FB3073208B000330814
:1006C000B10033083204031D532BAE0A0319AF0ADD
:1006D000452B080083120000C8007F08C900CA012A
:1006E000CB01CC010830831200004C0203188F2B81
:1006F0000310CA0DCB0DC81F862B0030CE00490851
:10070000CD00CA074E0803184E0FCB078312000016
:100710004808CD0003104D0DC800CC0A722B83127F
:1007200000004A08FF004B08080002308312D10085
:10073000D201831251088316A40083125208831633
:10074000A500FF308312D107031CD20383162508AE
:1007500024040319AD2B8E22992B08000034013498
:1007600002340334043405340634073410341134AD
:1007700020342134223423342434253426342734BD
:100780003034313401340034CA3403345334003447
:06079000013400340034C6
:02400E00D73F9A
:00000001FF
