:020000040000FA
:100000000000A328831685013D308312A200013031
:10001000A300A401A501A601A70183122508803E23
:10002000803E031D15281030240203185D2883121A
:100030002208FD002308FE002208FF0023083F21BC
:100040008312A9007F08A8001230FD007030FE0066
:100050002808FF00290829228312A3007F08A20094
:100060006430FD000030FE002208FF002308292232
:100070008312A9007F08A80026082C3EAA000030A1
:10008000AB0027080318270FAB072A088312840048
:10009000831383122B188317280883128000840A85
:1000A000831229088312800002308312A6070318E6
:1000B000A70AA40A0319A50A0D2883122C08831283
:1000C000A20083122D088312A3002208FF00230838
:1000D00070238312A3007F08A20083122C088312CE
:1000E000A40083122D088312A5002408FF00250810
:1000F00083238312A5007F08A40083122208963E62
:10010000A6000330A70023080318230FA70726081B
:10011000FE002708FF0080303223831285008312FF
:100120002408A03EA6000330A70025080318250FC9
:10013000A7072608FE002708FF008030322383121D
:1001400085007D280800AA30FE000330FF008030C3
:100150000000000011230000000083160000A10031
:100160007F08A000AC30A2000330A300831600007B
:100170002008A4002108A500FF30A007031CA1034C
:100180002508240403193B2904302207A400A501F3
:10019000A50D2308A5072408FE002508FF008030D0
:1001A0000000000011230000000083160000A700DB
:1001B0007F08A6002208FE002308FF008030000010
:1001C000000011230000000083160000A900A50014
:1001D0007F08A400A80002302207A400A501A50DF5
:1001E0002308A5072408FE002508FF008030000032
:1001F000000011230000000083160000A500AB00E2
:100200007F08AA00A400831600002608AA00270879
:10021000AB00FF30A607031CA7032B082A04031911
:1002200034292808FE002908FF0080300000000063
:1002300032230000000083160000AA002408831265
:1002400003138400831383160000251883172A08DC
:1002500083120313800083160000A80A0319A90A59
:10026000A40A0319A50A0329063083160000A20771
:100270000318A30AB628000000000228080083160D
:100280000000AD007F0883160000B0008316000058
:10029000AC007E08AF007D0883160000B200831614
:1002A0000000AE002D0883160000B1008316000088
:1002B0002F0883160000B300831600003008831651
:1002C0000000AC0083160000320883160000AD0069
:1002D000FF002C08000000004523000000008316EA
:1002E0000000AD007F08AC0083160000B400831648
:1002F00000002D0883160000B50083160000AC0036
:1003000083160000300883160000AD00831600003D
:10031000330883160000AE00FF002D080000000027
:100320004523000000007F0883160000AD008316FF
:100330000000310883160000AE008316000032086A
:1003400083160000AF00FF002E08000000004523C8
:10035000000000007F0883160000AE00AD072D08E6
:10036000AC072C0883160000B50034088316000083
:10037000AC0083160000350883160000AD002C0881
:10038000FF002D08080083160000B7007F08B600A4
:100390007E08B9007D08B8000314B71F0310BA0126
:1003A000BA0D3A080319DC293609BB003709BC002D
:1003B000BB0A0319BC0AE229831600003608BB00F9
:1003C0003708BC00831600003B08B6003C08B700A5
:1003D0000314B91F0310BB01BB0D3B080319F82917
:1003E0003809BC003909BD00BC0A0319BD0AFE2941
:1003F000831600003808BC003908BD0083160000D1
:100400003C08B800FD003D08B900FE003608FF00BA
:10041000370800000000D72200000000831600000B
:10042000B7007F08B6003B08BA063A080319232A2A
:100430003609BA003709B800BA0A0319B80A3A08E7
:10044000FF003808282A831600003608FF00370806
:10045000080083120000D5007F08D4007E08D70072
:100460007D08D6000314D51F0310D801D80D5808F5
:100470000319422A5409D9005509DA00D90A031987
:10048000DA0A482A831200005408D9005508DA0015
:10049000831200005908D4005A08D5000314D71F4E
:1004A0000310031C5B2A5609D9005709DA00D90A40
:1004B0000319DA0A612A831200005608D900570886
:1004C000DA00831200005908D600FD005A08D70050
:1004D000FE005408FF005508000000008A220000BA
:1004E000000083120000D5007F08D40058080319CB
:1004F000842A5409D8005509D600D80A0319D60A07
:100500005808FF005608892A831200005408FF008B
:100510005508080083120000DC007F08DB007E081D
:10052000DE007D08DD00DF01E001831200005E08CF
:100530008039031D0130E1006108031DB62A031054
:10054000DD0DDE0D5E085C02031DA82A5D085B025E
:100550000318B02A031083120000DE0CDD0CB62A4B
:1005600083120000E00A6008DF00952A8312000071
:100570005E085C02031DBE2A5D085B02031CC82ADC
:10058000831200005D08DB025E08031C5E0FDC02C4
:10059000031083120000DE0CDD0C5F08E000DF03B7
:1005A0006008031DB62A5B08FF005C080800831280
:1005B0000000CD007F08CC007E08CF007D08CE0073
:1005C000D001D1011030D200831200004D088039D3
:1005D000031D0130D3000310CC0DCD0D0310D00D41
:1005E000D10D5308031D50144F085102031DFA2A60
:1005F0004E085002031C052B831200004E08D00247
:100600004F08031C4F0FD1024C14831200005203F9
:10061000D300D2005308031DE42A4C08FF004D0804
:100620000800003A0319192B803A0319232BFF0104
:1006300000347E08840083137F1883170008FF00AE
:10064000840A00080800000000004023FD00FE0F9F
:10065000FF03FF0A000000004023FC007D08FF00AC
:100660007C080800003A0319392B803A0319402B03
:1006700000347E08840083137F1883170008080065
:100680007F088A007E088200080083120000E200D2
:100690007F08E300E401E501E60108308312000071
:1006A000660203186A2B0310E40DE50DE21F612BAF
:1006B0000030E8006308E700E40768080318680FE3
:1006C000E507831200006208E7000310670DE200EF
:1006D000E60A4D2B831200006408FF00650808003D
:1006E0008312A1007F08A0000A30FD000030FE0048
:1006F0002008FF002108C3218312A1007F08A00069
:10070000FF00210808008312A1007F08A0000A3022
:10071000FD000030FE002008FF002108292283127E
:10072000A1007F08A000FF00210808000034013468
:1007300002340334043405340634073410341134DD
:1007400020342134223423342434253426342734ED
:100750003034313401340034B2340334BE34003424
:06076000013400340034F6
:02400E00D73F9A
:00000001FF
