:020000040000FA
:1000000000000228BD30FE000230FF0080300000FA
:10001000000024220000000083160000B1007F08C9
:10002000B000BF30B2000230B300831600003008C9
:10003000B4003108B500FF30B007031CB103350828
:10004000340403199A2804303207B400B501B50D01
:100050003308B5073408FE003508FF008030000083
:10006000000024220000000083160000B7007F0873
:10007000B6003208FE003308FF00803000000000A8
:1000800024220000000083160000B900B5007F089C
:10009000B400B80002303207B400B501B50D330822
:1000A000B5073408FE003508FF008030000000006E
:1000B00024220000000083160000B500BB007F086A
:1000C000BA00B400831600003608BA003708BB0037
:1000D000FF30B607031CB7033B083A040319932803
:1000E0003808FE003908FF0080300000000045227B
:1000F0000000000083160000BA00340883120313C6
:100100008400831383160000351883173A0883127E
:100110000313800083160000B80A0319B90AB40A51
:100120000319B50A6228063083160000B2070318C7
:10013000B30A152800000000EC2908008312000013
:10014000A1007F08A0007E08A3007D08A200031480
:10015000A11F0310A401A40D24080319B728200926
:10016000A5002109A600A50A0319A60ABD28831225
:1001700000002008A5002108A60083120000250821
:10018000A0002608A1000314A31F0310A501A50DBC
:1001900025080319D3282209A6002309A700A60AC7
:1001A0000319A70AD928831200002208A6002308F1
:1001B000A700831200002608A200FD002708A30064
:1001C000FE002008FF00210800000000B22100000E
:1001D000000083120000A1007F08A0002508A406EB
:1001E00024080319FE282009A4002109A200A40A5A
:1001F0000319A20A2408FF00220803298312000021
:100200002008FF002108080083120000B1007F08C9
:10021000B0007E08B3007D08B2000314B11F0310C4
:10022000B401B40D340803191D293009B500310992
:10023000B600B50A0319B60A232983120000300854
:10024000B5003108B600831200003508B00036084A
:10025000B1000314B31F0310031C36293209B50083
:100260003309B600B50A0319B60A3C298312000007
:100270003208B5003308B600831200003508B2001A
:10028000FD003608B300FE003008FF003108000012
:10029000000065210000000083120000B1007F080B
:1002A000B000340803195F293009B4003109B200E5
:1002B000B40A0319B20A3408FF0032086429831211
:1002C00000003008FF003108080083120000B80069
:1002D0007F08B7007E08BA007D08B900BB01BC01E9
:1002E000831200003A088039031D0130BD003D082B
:1002F000031D91290310B90DBA0D3A083802031DE8
:1003000083293908370203188B2903108312000050
:10031000BA0CB90C912983120000BC0A3C08BB003E
:100320007029831200003A083802031D9929390800
:100330003702031CA329831200003908B7023A08C8
:10034000031C3A0FB802031083120000BA0CB90C58
:100350003B08BC00BB033C08031D91293708FF0084
:100360003808080083120000A9007F08A8007E0852
:10037000AB007D08AA00AC01AD011030AE008312C5
:10038000000029088039031D0130AF000310A80DBB
:10039000A90D0310AC0DAD0D2F08031D2C142B0857
:1003A0002D02031DD5292A082C02031CE0298312E3
:1003B00000002A08AC022B08031C2B0FAD022814E6
:1003C000831200002E03AF00AE002F08031DBF29CB
:1003D0002808FF0029080800831685013730FF0030
:1003E000003083228316A3007F08A2003730FF006D
:1003F000003096228316A5007F08A40083162208E9
:10040000A93EA6000230A70023080318230FA70760
:100410002608FE002708FF00803045228312850051
:1004200083162408B33EA6000230A700250803184F
:10043000250FA7072608FE002708FF008030452269
:1004400083128500FE290800003A03192C2A803AFD
:100450000319362AFF0100347E08840083137F18B5
:1004600083170008FF00840A00080800000000004D
:100470005322FD00FE0FFF03FF0A0000000053227D
:10048000FC007D08FF007C080800003A03194C2A94
:10049000803A0319532A00347E08840083137F189E
:1004A0008317000808007F088A007E088200080081
:1004B0008316A9007F08A800AA01AB0183162908AA
:1004C0002B02031D652A28082A020318822AFB3002
:1004D0008316AC000430AD00FF3083162C07AE004D
:1004E000FF30AF002D0803182D0FAF072E08AC000A
:1004F0002F08AD002F082E04031D6C2AAA0A031929
:10050000AB0A5E2A08008316A1007F08A0000A300B
:10051000FD000030FE002008FF0021089E20831609
:10052000A1007F08A000FF00210808008316A10099
:100530007F08A0000A30FD000030FE002008FF0008
:10054000210804218316A1007F08A000FF002108D4
:100550000800003401340234033404340534063412
:100560000734103411342034213422342334243419
:100570002534263427343034313401340034C53442
:0C0580000234BC34003401340034003478
:00000001FF
