:020000040000FA
:10000000000002282530FE000130FF008030000093
:1000100000009E200000000083160000A1007F0861
:10002000A0002730A2000130A300831600002008A2
:10003000A4002108A500FF30A007031CA103250888
:10004000240403199A2804302207A400A501A50D51
:100050002308A5072408FE002508FF0080300000C3
:1000600000009E200000000083160000A7007F080B
:10007000A6002208FE002308FF00803000000000D8
:100080009E200000000083160000A900A5007F0844
:10009000A400A80002302207A400A501A50D230892
:1000A000A5072408FE002508FF008030000000009E
:1000B0009E200000000083160000A500AB007F0812
:1000C000AA00A400831600002608AA002708AB0097
:1000D000FF30A607031CA7032B082A040319932843
:1000E0002808FE002908FF00803000000000BF2023
:1000F0000000000083160000AA00240883120313E6
:100100008400831383160000251883172A0883129E
:100110000313800083160000A80A0319A90AA40A81
:100120000319A50A6228063083160000A2070318E7
:10013000A30A152800000000FD280800003A031952
:10014000A628803A0319B028FF0100347E088400F5
:1001500083137F1883170008FF00840A0008080033
:1001600000000000CD20FD00FE0FFF03FF0A00008D
:100170000000CD20FC007D08FF007C080800003A4C
:100180000319C628803A0319CD2800347E0884005C
:1001900083137F188317000808007F088A007E08F1
:1001A000820008008316AD007F08AC00AE01AF01ED
:1001B00083162D082F02031DDF282C082E0203189A
:1001C000FC28FB308316B0000430B100FF308316EA
:1001D0003007B200FF30B30031080318310FB30706
:1001E0003208B0003308B10033083204031DE6289A
:1001F000AE0A0319AF0AD8280800831685011A3001
:10020000FE000130FF008030BF20831285001D30CA
:10021000FE000130FF008030BF2083128500FF28E0
:100220000800003401340234033404340534063445
:10023000073410341134203421342234233424344C
:1002400025342634273430343134013400342D340D
:0C0250000134B4340034013400340034B4
:00000001FF
